{
  "contractName": "PlayerFactory",
  "abi": [
    {
      "inputs": [],
      "stateMutability": "nonpayable",
      "type": "constructor"
    },
    {
      "anonymous": false,
      "inputs": [
        {
          "indexed": false,
          "internalType": "address",
          "name": "player",
          "type": "address"
        },
        {
          "indexed": false,
          "internalType": "uint256",
          "name": "regTime",
          "type": "uint256"
        },
        {
          "indexed": false,
          "internalType": "string",
          "name": "gameName",
          "type": "string"
        }
      ],
      "name": "PlayerRegisterd",
      "type": "event"
    },
    {
      "anonymous": false,
      "inputs": [
        {
          "indexed": false,
          "internalType": "address",
          "name": "tipper",
          "type": "address"
        },
        {
          "indexed": false,
          "internalType": "uint256",
          "name": "amountTipped",
          "type": "uint256"
        }
      ],
      "name": "TipRecieved",
      "type": "event"
    },
    {
      "inputs": [],
      "name": "currentAmount",
      "outputs": [
        {
          "internalType": "uint256",
          "name": "",
          "type": "uint256"
        }
      ],
      "stateMutability": "view",
      "type": "function",
      "constant": true
    },
    {
      "inputs": [],
      "name": "myAddress",
      "outputs": [
        {
          "internalType": "address",
          "name": "",
          "type": "address"
        }
      ],
      "stateMutability": "view",
      "type": "function",
      "constant": true
    },
    {
      "inputs": [],
      "name": "numberOfPlayers",
      "outputs": [
        {
          "internalType": "uint256",
          "name": "",
          "type": "uint256"
        }
      ],
      "stateMutability": "view",
      "type": "function",
      "constant": true
    },
    {
      "inputs": [],
      "name": "owner",
      "outputs": [
        {
          "internalType": "address",
          "name": "",
          "type": "address"
        }
      ],
      "stateMutability": "view",
      "type": "function",
      "constant": true
    },
    {
      "inputs": [
        {
          "internalType": "address",
          "name": "",
          "type": "address"
        }
      ],
      "name": "playerAddressToPlayerContractAddress",
      "outputs": [
        {
          "internalType": "address",
          "name": "",
          "type": "address"
        }
      ],
      "stateMutability": "view",
      "type": "function",
      "constant": true
    },
    {
      "inputs": [
        {
          "internalType": "address",
          "name": "",
          "type": "address"
        }
      ],
      "name": "playerToAmountTipped",
      "outputs": [
        {
          "internalType": "uint256",
          "name": "",
          "type": "uint256"
        }
      ],
      "stateMutability": "view",
      "type": "function",
      "constant": true
    },
    {
      "inputs": [
        {
          "internalType": "uint256",
          "name": "",
          "type": "uint256"
        }
      ],
      "name": "players",
      "outputs": [
        {
          "internalType": "contract Player",
          "name": "",
          "type": "address"
        }
      ],
      "stateMutability": "view",
      "type": "function",
      "constant": true
    },
    {
      "inputs": [],
      "name": "totalDonation",
      "outputs": [
        {
          "internalType": "uint256",
          "name": "",
          "type": "uint256"
        }
      ],
      "stateMutability": "view",
      "type": "function",
      "constant": true
    },
    {
      "inputs": [],
      "name": "sendAllValues",
      "outputs": [
        {
          "internalType": "contract Player[]",
          "name": "player",
          "type": "address[]"
        },
        {
          "internalType": "uint256",
          "name": "playerNumbers",
          "type": "uint256"
        },
        {
          "internalType": "uint256",
          "name": "totDona",
          "type": "uint256"
        },
        {
          "internalType": "uint256",
          "name": "ca",
          "type": "uint256"
        }
      ],
      "stateMutability": "view",
      "type": "function",
      "constant": true
    },
    {
      "inputs": [
        {
          "internalType": "string",
          "name": "gameName",
          "type": "string"
        }
      ],
      "name": "regiterNewPlayer",
      "outputs": [
        {
          "internalType": "string",
          "name": "",
          "type": "string"
        }
      ],
      "stateMutability": "payable",
      "type": "function",
      "payable": true
    },
    {
      "inputs": [],
      "name": "checkIfPlayerReg",
      "outputs": [
        {
          "internalType": "string",
          "name": "",
          "type": "string"
        }
      ],
      "stateMutability": "view",
      "type": "function",
      "constant": true
    },
    {
      "inputs": [],
      "name": "playerContract",
      "outputs": [
        {
          "internalType": "address",
          "name": "",
          "type": "address"
        }
      ],
      "stateMutability": "view",
      "type": "function",
      "constant": true
    },
    {
      "inputs": [],
      "name": "tip",
      "outputs": [],
      "stateMutability": "payable",
      "type": "function",
      "payable": true
    },
    {
      "inputs": [],
      "name": "withdrawFunds",
      "outputs": [],
      "stateMutability": "payable",
      "type": "function",
      "payable": true
    },
    {
      "inputs": [],
      "name": "currentFundsPresent",
      "outputs": [
        {
          "internalType": "uint256",
          "name": "",
          "type": "uint256"
        }
      ],
      "stateMutability": "view",
      "type": "function",
      "constant": true
    },
    {
      "inputs": [
        {
          "internalType": "uint256",
          "name": "amount",
          "type": "uint256"
        }
      ],
      "name": "requestFunds",
      "outputs": [],
      "stateMutability": "payable",
      "type": "function",
      "payable": true
    },
    {
      "inputs": [
        {
          "internalType": "address payable",
          "name": "_to",
          "type": "address"
        },
        {
          "internalType": "uint256",
          "name": "_amount",
          "type": "uint256"
        }
      ],
      "name": "transferFunds",
      "outputs": [],
      "stateMutability": "payable",
      "type": "function",
      "payable": true
    }
  ],
  "bytecode": "0x608060405260078054600160a060020a0319163017905534801561002257600080fd5b5060048054600160a060020a0319163317905561274a806100446000396000f3fe60806040526004361062000130576000357c0100000000000000000000000000000000000000000000000000000000900480638da5cb5b11620000be578063bf3bd25d1162000089578063bf3bd25d14620002ce578063cb7792a714620002e5578063ee2ac05f14620002fd578063f441b1c81462000315578063f71d96cb146200032d57600080fd5b80638da5cb5b146200023157806395811d501462000253578063990dc9db146200028d578063be54b3a914620002a457600080fd5b80634bd4cbb011620000ff5780634bd4cbb014620001aa578063585624d714620001db5780636921792414620002025780636f4bda17146200021957600080fd5b8063243288bc146200013557806324600fc3146200015957806326b85ee114620001655780632755cd2d14620001a0575b600080fd5b3480156200014257600080fd5b5030315b6040519081526020015b60405180910390f35b6200016362000352565b005b3480156200017257600080fd5b506007546200018790600160a060020a031681565b604051600160a060020a03909116815260200162000150565b62000163620003a8565b348015620001b757600080fd5b5062000146620001c936600462000a4d565b60066020526000908152604090205481565b348015620001e857600080fd5b50620001f36200048e565b60405162000150919062000a74565b620001f36200021336600462000acc565b62000522565b3480156200022657600080fd5b506200014660015481565b3480156200023e57600080fd5b506004546200018790600160a060020a031681565b3480156200026057600080fd5b50620001876200027236600462000a4d565b600560205260009081526040902054600160a060020a031681565b620001636200029e36600462000b43565b620006eb565b348015620002b157600080fd5b50620002bc62000801565b60405162000150949392919062000b72565b62000163620002df36600462000bd4565b62000874565b348015620002f257600080fd5b5062000187620009bc565b3480156200030a57600080fd5b506200014660025481565b3480156200032257600080fd5b506200014660035481565b3480156200033a57600080fd5b50620001876200034c36600462000bd4565b620009fe565b600454600160a060020a031633146200036a57600080fd5b600454604051600160a060020a0390911690303180156108fc02916000818181858888f19350505050158015620003a5573d6000803e3d6000fd5b50565b60003411620004015760405160e560020a62461bcd02815260206004820152601b60248201527f506c6561736520746970207573206f766572203020657468203a28000000000060448201526064015b60405180910390fd5b3460025462000411919062000c1d565b600255336000908152600660205260409020546200043190349062000c1d565b336000908152600660205260409020556003546200045190349062000c1d565b600355604080513381523460208201527fbb6b0c76c739d191ae45f3bc487e06b478d87351bf4e6a0b9f68d7d07840e290910160405180910390a1565b33600090815260056020526040902054606090600160a060020a0316620004ea576040518060400160405280602081526020017f506c61796572206e6f7420666f756e6420706c65617365207265676973746572815250905090565b5060408051808201909152600481527f676f6f6400000000000000000000000000000000000000000000000000000000602082015290565b3360008181526005602052604090205460609190600160a060020a03161562000584576040518060400160405280602081526020017f736f72727920796f752061726520616c72656164792072656769737465726564815250915050620006e5565b6004546040516000918391429188918891600160a060020a031690620005aa9062000a29565b620005ba95949392919062000c61565b604051809103906000f080158015620005d7573d6000803e3d6000fd5b509050620005e7816001620006eb565b60018054906000620005f98362000ca2565b9091555050600080546001810182557f290decd9548b62a8d60345a988386fc84ba6bc95484008f6362f93160ef3e563018054600160a060020a03841673ffffffffffffffffffffffffffffffffffffffff1991821681179092553380845260056020526040938490208054909216909217905590517f8bcf457a3420d9ae5d28461eef9af774b8058dd9c3d8ce229dac4a5188c8a52c91620006a29142908990899062000cc0565b60405180910390a16040518060400160405280600481526020017f446f6e6500000000000000000000000000000000000000000000000000000000815250925050505b92915050565b670de0b6b3a76400003031116200076e5760405160e560020a62461bcd02815260206004820152603160248201527f536f7272792054686520636f6e747261637420646f6573206e6f74206861766560448201527f20656e6f756768206d6f6e6579206e6f770000000000000000000000000000006064820152608401620003f8565b6000600160a060020a0383166108fc6200079184670de0b6b3a764000062000cf5565b6040518115909202916000818181858888f19350505050905080620007fc5760405160e560020a62461bcd02815260206004820152601860248201527f4661696c656420746f2073656e642074686520657468657200000000000000006044820152606401620003f8565b505050565b60035460015460008054604080516020808402820181019092528281526060959290918491908301828280156200086257602002820191906000526020600020905b8154600160a060020a0316815260019091019060200180831162000843575b50505050509350600254915090919293565b6000805b600054811015620008de5733600160a060020a031660008281548110620008a357620008a362000d17565b600091825260209091200154600160a060020a03161415620008c95760019150620008de565b80620008d58162000ca2565b91505062000878565b5080620009315760405160e560020a62461bcd02815260206004820152601e60248201527f736f72727920796f752063616e6e6f742061736b20666f722066756e647300006044820152606401620003f8565b30318210620009ac5760405160e560020a62461bcd02815260206004820152602f60248201527f536f727279207468657265206973206e6f7420656e6f756768206d6f6e65792060448201527f696e2074686520636f6e747261637400000000000000000000000000000000006064820152608401620003f8565b620009b83383620006eb565b5050565b33600090815260056020526040812054600160a060020a031615620009f8575033600090815260056020526040902054600160a060020a031690565b50600090565b6000818154811062000a0f57600080fd5b600091825260209091200154600160a060020a0316905081565b6119ce8062000d4783390190565b600160a060020a0381168114620003a557600080fd5b60006020828403121562000a6057600080fd5b813562000a6d8162000a37565b9392505050565b600060208083528351808285015260005b8181101562000aa35785810183015185820160400152820162000a85565b8181111562000ab6576000604083870101525b50601f01601f1916929092016040019392505050565b6000806020838503121562000ae057600080fd5b823567ffffffffffffffff8082111562000af957600080fd5b818501915085601f83011262000b0e57600080fd5b81358181111562000b1e57600080fd5b86602082850101111562000b3157600080fd5b60209290920196919550909350505050565b6000806040838503121562000b5757600080fd5b823562000b648162000a37565b946020939093013593505050565b6080808252855190820181905260009060209060a0840190828901845b8281101562000bb6578151600160a060020a03168452928401929084019060010162000b8f565b50505090830195909552506040810192909252606090910152919050565b60006020828403121562000be757600080fd5b5035919050565b7f4e487b7100000000000000000000000000000000000000000000000000000000600052601160045260246000fd5b6000821982111562000c335762000c3362000bee565b500190565b81835281816020850137506000828201602090810191909152601f909101601f19169091010190565b6000600160a060020a0380881683528660208401526080604084015262000c8d60808401868862000c38565b91508084166060840152509695505050505050565b600060001982141562000cb95762000cb962000bee565b5060010190565b600160a060020a038516815283602082015260606040820152600062000ceb60608301848662000c38565b9695505050505050565b600081600019048311821515161562000d125762000d1262000bee565b500290565b7f4e487b7100000000000000000000000000000000000000000000000000000000600052603260045260246000fdfe6080604052670de0b6b3a7640000600755670de0b6b3a764000060085564e8d4a51000600a5564174876e800600b55604051620019ce380380620019ce8339810160408190526200005091620002be565b60038054600160a060020a031916600160a060020a03861617905560006001556040518390600c9062000085908590620003a8565b908152602001604051809103902081905550600d82604051620000a99190620003a8565b9081526040519081900360200190208054906000620000c883620003c6565b90915550506000838155600280546001810182559152825162000113917f405787fa12a823e0f2b7631cc41b3ba8828b3321ca811111fa75cd3aa3bb5ace0190602085019062000199565b5081516200012990600490602085019062000199565b5060068054600160a060020a03191633179055670de0b6b3a76400006005556040516000906011906200015e908590620003a8565b9081526040519081900360200190205560098054600160a060020a03909216600160a060020a0319909216919091179055506200045f915050565b828054620001a79062000409565b90600052602060002090601f016020900481019282620001cb576000855562000216565b82601f10620001e657805160ff191683800117855562000216565b8280016001018555821562000216579182015b8281111562000216578251825591602001919060010190620001f9565b506200022492915062000228565b5090565b5b8082111562000224576000815560010162000229565b8051600160a060020a03811681146200025757600080fd5b919050565b7f4e487b7100000000000000000000000000000000000000000000000000000000600052604160045260246000fd5b60005b83811015620002a85781810151838201526020016200028e565b83811115620002b8576000848401525b50505050565b60008060008060808587031215620002d557600080fd5b620002e0856200023f565b935060208501519250604085015167ffffffffffffffff808211156200030557600080fd5b818701915087601f8301126200031a57600080fd5b8151818111156200032f576200032f6200025c565b604051601f8201601f19908116603f011681019083821181831017156200035a576200035a6200025c565b816040528281528a60208487010111156200037457600080fd5b620003878360208301602088016200028b565b80965050505050506200039d606086016200023f565b905092959194509250565b60008251620003bc8184602087016200028b565b9190910192915050565b600060001982141562000402577f4e487b7100000000000000000000000000000000000000000000000000000000600052601160045260246000fd5b5060010190565b6002810460018216806200041e57607f821691505b6020821081141562000459577f4e487b7100000000000000000000000000000000000000000000000000000000600052602260045260246000fd5b50919050565b61155f806200046f6000396000f3fe608060405260043610610190576000357c010000000000000000000000000000000000000000000000000000000090048063a8bdbbd9116100e5578063cf24141a116100a1578063d845a4b31161007e578063d845a4b314610477578063e59fda071461048a578063f9f0979e146104a0578063fbf8b1c7146104d857005b8063cf24141a14610409578063d1b012381461041f578063d5f394881461045757005b8063a8bdbbd91461035e578063afc2016f14610374578063b28132c714610394578063be95e01a146103aa578063bfd262a7146103bd578063ce845d1d146103f557005b80633f4bf35c1161014c578063599f2ace11610129578063599f2ace146102fd57806360b663bb1461031d57806392c0ad4c14610332578063993a36c21461034857005b80633f4bf35c14610292578063463256ee146102a557806348015c61146102dd57005b806304a5be24146101995780630b087e74146101e457806312269a6a146101f75780631dcd69ec1461022f578063382cf0a6146102455780633a7d280c1461027257005b3661019757005b005b3480156101a557600080fd5b506101d16101b43660046111ce565b8051602081830181018051600f8252928201919093012091525481565b6040519081526020015b60405180910390f35b6101976101f236600461127f565b610510565b34801561020357600080fd5b506101d16102123660046111ce565b805160208183018101805160108252928201919093012091525481565b34801561023b57600080fd5b506101d160005481565b34801561025157600080fd5b506102656102603660046112bb565b61060d565b6040516101db9190611300565b34801561027e57600080fd5b5061026561028d3660046111ce565b6106b9565b6101976102a03660046111ce565b610ace565b3480156102b157600080fd5b506003546102c590600160a060020a031681565b604051600160a060020a0390911681526020016101db565b3480156102e957600080fd5b506101976102f83660046112bb565b610d08565b34801561030957600080fd5b506009546102c590600160a060020a031681565b34801561032957600080fd5b50610265610d37565b34801561033e57600080fd5b506101d1600a5481565b34801561035457600080fd5b506101d160085481565b34801561036a57600080fd5b506101d160015481565b34801561038057600080fd5b5061019761038f3660046111ce565b610d44565b3480156103a057600080fd5b506101d160055481565b6101976103b836600461127f565b610d8e565b3480156103c957600080fd5b506101d16103d83660046111ce565b805160208183018101805160118252928201919093012091525481565b34801561040157600080fd5b5030316101d1565b34801561041557600080fd5b506101d160075481565b34801561042b57600080fd5b506101d161043a3660046111ce565b8051602081830181018051600d8252928201919093012091525481565b34801561046357600080fd5b506006546102c590600160a060020a031681565b6101976104853660046112bb565b610f1d565b34801561049657600080fd5b506101d1600b5481565b3480156104ac57600080fd5b506101d16104bb3660046111ce565b8051602081830181018051600c8252928201919093012091525481565b3480156104e457600080fd5b506101d16104f33660046111ce565b8051602081830181018051600e8252928201919093012091525481565b600a5482101561058f5760405160e560020a62461bcd028152602060048201526024808201527f536f72727920736f6d657468696e672069732077726f6e672061626f7574206560448201527f746865720000000000000000000000000000000000000000000000000000000060648201526084015b60405180910390fd5b604051600090600160a060020a0383169084156108fc0290859084818181858888f193505050509050806106085760405160e560020a62461bcd02815260206004820181905260248201527f536f72727920746865207061796f7574207761736e742070726f6365737365646044820152606401610586565b505050565b6002818154811061061d57600080fd5b90600052602060002001600091509050805461063890611333565b80601f016020809104026020016040519081016040528092919081815260200182805461066490611333565b80156106b15780601f10610686576101008083540402835291602001916106b1565b820191906000526020600020905b81548152906001019060200180831161069457829003601f168201915b505050505081565b600354606090600160a060020a031633146106d357600080fd5b62015180600c836040516106e79190611371565b9081526020016040518091039020544261070191906113a6565b106108f35761070f82610fb0565b600460405160200161072191906113bd565b60405160208183030381529060405280519060200120826040516020016107489190611300565b60405160208183030381529060405280519060200120146108b157815161077690600490602085019061111c565b506000805b600254811015610842576002818154811061079857610798611469565b906000526020600020016040516020016107b291906113bd565b60405160208183030381529060405280519060200120846040516020016107d99190611300565b6040516020818303038152906040528051906020012014156108305760019150600d846040516108099190611371565b908152604051908190036020019020805490600061082683611482565b9190505550610842565b8061083a81611482565b91505061077b565b50806108af5760028054600181018255600091909152835161088b917f405787fa12a823e0f2b7631cc41b3ba8828b3321ca811111fa75cd3aa3bb5ace0190602086019061111c565b50600060118460405161089e9190611371565b908152604051908190036020019020555b505b42600c836040516108c29190611371565b9081526020016040518091039020819055506040518060600160405280603081526020016114fa6030913992915050565b600460405160200161090591906113bd565b604051602081830303815290604052805190602001208260405160200161092c9190611300565b6040516020818303038152906040528051906020012014610a9557815161095a90600490602085019061111c565b506000805b600254811015610a26576002818154811061097c5761097c611469565b9060005260206000200160405160200161099691906113bd565b60405160208183030381529060405280519060200120846040516020016109bd9190611300565b604051602081830303815290604052805190602001201415610a145760019150600d846040516109ed9190611371565b9081526040519081900360200190208054906000610a0a83611482565b9190505550610a26565b80610a1e81611482565b91505061095f565b5080610a9357600280546001810182556000919091528351610a6f917f405787fa12a823e0f2b7631cc41b3ba8828b3321ca811111fa75cd3aa3bb5ace0190602086019061111c565b506000601184604051610a829190611371565b908152604051908190036020019020555b505b505060408051808201909152601881527f612064617920686173206e6f7420796574207061737365640000000000000000602082015290565b601181604051610ade9190611371565b9081526040519081900360200190208054906000610afb83611482565b91905055506001601082604051610b129190611371565b90815260200160405180910390205411610c1b57600854600f82604051610b399190611371565b908152602001604051809103902081905550610b7f600f82604051610b5e9190611371565b90815260405190819003602001902054600354600160a060020a0316610d8e565b601081604051610b8f9190611371565b9081526040519081900360200190208054906000610bac83611482565b91905055507fb5cac783502b8f914e5e0a27b67fd60f0aec02b3a5b2c0d930807f7a28d00b79600f82604051610be29190611371565b90815260408051918290036020908101832054600354908452600160a060020a031690830152429082015260600160405180910390a150565b601081604051610c2b9190611371565b9081526040519081900360200190208054906000610c4883611482565b9190505550601081604051610c5d9190611371565b908152602001604051809103902054600754610c79919061149d565b600f82604051610c899190611371565b908152602001604051809103902054610ca291906114bc565b600f82604051610cb29190611371565b908152602001604051809103902081905550610cd7600f82604051610b5e9190611371565b7fb5cac783502b8f914e5e0a27b67fd60f0aec02b3a5b2c0d930807f7a28d00b79600f82604051610be29190611371565b600954600160a060020a03163314610d1f57600080fd5b610d3181670de0b6b3a764000061149d565b60085550565b6004805461063890611333565b6000601082604051610d569190611371565b908152602001604051809103902081905550600854600f82604051610d7b9190611371565b9081526040519081900360200190205550565b670de0b6b3a7640000821015610e0f5760405160e560020a62461bcd02815260206004820152602f60248201527f536f7272792074686520616d6f756e742073686f756c6420626520677265617460448201527f6572207468616e203120657468657200000000000000000000000000000000006064820152608401610586565b303182811015610e9e573063d845a4b3610e31670de0b6b3a7640000866114d4565b6040518263ffffffff167c0100000000000000000000000000000000000000000000000000000000028152600401610e6b91815260200190565b600060405180830381600087803b158015610e8557600080fd5b505af1158015610e99573d6000803e3d6000fd5b505050505b604051600090600160a060020a0384169085156108fc0290869084818181858888f19350505050905080610f175760405160e560020a62461bcd02815260206004820181905260248201527f536f72727920746865207061796f7574207761736e742070726f6365737365646044820152606401610586565b50505050565b6006546040517fbf3bd25d00000000000000000000000000000000000000000000000000000000815260048101839052600160a060020a039091169063bf3bd25d90602401600060405180830381600087803b158015610f7c57600080fd5b505af1158015610f90573d6000803e3d6000fd5b50505050600554670de0b6b3a7640000610faa91906114bc565b60055550565b6001600d82604051610fc29190611371565b9081526020016040518091039020541161109257600a54600e82604051610fe99190611371565b908152602001604051809103902081905550600d8160405161100b9190611371565b908152604051908190036020019020805490600061102883611482565b9190505550611061600e826040516110409190611371565b90815260405190819003602001902054600354600160a060020a0316610510565b7fca030bcdc24c89f1878462934666de6e3b6959276d926740f5f46dfd728ad48a600e82604051610be29190611371565b600b54600d826040516110a59190611371565b9081526020016040518091039020546110be919061149d565b600e826040516110ce9190611371565b9081526020016040518091039020546110e791906114bc565b600e826040516110f79190611371565b908152602001604051809103902081905550611061600e826040516110409190611371565b82805461112890611333565b90600052602060002090601f01602090048101928261114a5760008555611190565b82601f1061116357805160ff1916838001178555611190565b82800160010185558215611190579182015b82811115611190578251825591602001919060010190611175565b5061119c9291506111a0565b5090565b5b8082111561119c57600081556001016111a1565b60e060020a634e487b7102600052604160045260246000fd5b6000602082840312156111e057600080fd5b813567ffffffffffffffff808211156111f857600080fd5b818401915084601f83011261120c57600080fd5b81358181111561121e5761121e6111b5565b604051601f8201601f19908116603f01168101908382118183101715611246576112466111b5565b8160405282815287602084870101111561125f57600080fd5b826020860160208301376000928101602001929092525095945050505050565b6000806040838503121561129257600080fd5b823591506020830135600160a060020a03811681146112b057600080fd5b809150509250929050565b6000602082840312156112cd57600080fd5b5035919050565b60005b838110156112ef5781810151838201526020016112d7565b83811115610f175750506000910152565b602081526000825180602084015261131f8160408501602087016112d4565b601f01601f19169190910160400192915050565b60028104600182168061134757607f821691505b6020821081141561136b5760e060020a634e487b7102600052602260045260246000fd5b50919050565b600082516113838184602087016112d4565b9190910192915050565b60e060020a634e487b7102600052601160045260246000fd5b6000828210156113b8576113b861138d565b500390565b6000602080835260008454816002820490506001808316806113e057607f831692505b8583108114156114015760e060020a634e487b710285526022600452602485fd5b87860183815260200181801561141e576001811461142f5761145a565b60ff1986168252878201965061145a565b60008b81526020902060005b868110156114545781548482015290850190890161143b565b83019750505b50949998505050505050505050565b60e060020a634e487b7102600052603260045260246000fd5b60006000198214156114965761149661138d565b5060010190565b60008160001904831182151516156114b7576114b761138d565b500290565b600082198211156114cf576114cf61138d565b500190565b6000826114f45760e060020a634e487b7102600052601260045260246000fd5b50049056fe436f6e67726174732c20796f7520676f7420796f7572206461696c79207265776172642077656c636f6d65206261636ba26469706673582212202e4d9cb08cbc7748c7ff97327783b0f78fdf5e9948c6479407137936725b670e64736f6c63430008090033a26469706673582212208118a4f4694336ba7dbc6d9118edbce52cadec525ec7ca4b959c7f219ea7088c64736f6c63430008090033",
  "immutableReferences": {},
  "source": "// SPDX-License-Identifier: GPL-3.0\r\n\r\npragma solidity >=0.7.0 <0.9.0;\r\n\r\nimport './player.sol';\r\ncontract PlayerFactory {\r\n    Player[] public players;\r\n    uint256 public numberOfPlayers;\r\n    uint256 public totalDonation;\r\n    uint256 public currentAmount;\r\n    address public owner;\r\n    mapping(address => address) public playerAddressToPlayerContractAddress;\r\n    mapping(address => uint256) public playerToAmountTipped;\r\n    address public myAddress = address(this);\r\n    event PlayerRegisterd(address player, uint256 regTime, string gameName);\r\n\r\n    event TipRecieved(address tipper, uint256 amountTipped);\r\n\r\n    modifier onlyOwner() {\r\n        require(msg.sender == owner);\r\n        _;\r\n    }\r\n\r\n    constructor() {\r\n        owner = msg.sender;\r\n    }\r\n\r\n    function sendAllValues() public view returns(\r\n        Player[] memory player, uint256 playerNumbers, uint256 totDona, uint256 ca\r\n    ) {\r\n        ca = currentAmount;\r\n        playerNumbers = numberOfPlayers;\r\n        player = players;\r\n        totDona = totalDonation;\r\n\r\n    }\r\n\r\n    function regiterNewPlayer(string calldata gameName)\r\n        external\r\n        payable\r\n        returns (string memory)\r\n    {\r\n        address playerAddress = msg.sender;\r\n        if (playerAddressToPlayerContractAddress[playerAddress] != address(0)) {\r\n            return \"sorry you are already registered\";\r\n        }\r\n\r\n        Player player = new Player(\r\n            playerAddress,\r\n            block.timestamp,\r\n            gameName,\r\n            owner\r\n        );\r\n        // player.getTipped{value:msg.value};\r\n        transferFunds(payable(address(player)), 1);\r\n        numberOfPlayers++;\r\n        players.push(player);\r\n        playerAddressToPlayerContractAddress[msg.sender] = address(player);\r\n        emit PlayerRegisterd(msg.sender, block.timestamp, gameName);\r\n\r\n        return \"Done\";\r\n    }\r\n\r\n    function checkIfPlayerReg() external view returns (string memory) {\r\n        if (playerAddressToPlayerContractAddress[msg.sender] == address(0)) {\r\n            return \"Player not found please register\";\r\n        } else {\r\n            return \"good\";\r\n        }\r\n    }\r\n\r\n    function playerContract() external view returns (address) {\r\n        if (playerAddressToPlayerContractAddress[msg.sender] != address(0)) {\r\n            return playerAddressToPlayerContractAddress[msg.sender];\r\n        }\r\n        return address(0);\r\n    }\r\n\r\n    function tip() external payable {\r\n        require(msg.value > 0, \"Please tip us over 0 eth :(\");\r\n        totalDonation = totalDonation + msg.value;\r\n        playerToAmountTipped[msg.sender] =\r\n            playerToAmountTipped[msg.sender] +\r\n            msg.value;\r\n        currentAmount = currentAmount + msg.value;\r\n        emit TipRecieved(msg.sender, msg.value);\r\n    }\r\n\r\n    function withdrawFunds() external payable onlyOwner {\r\n        payable(owner).transfer(address(this).balance);\r\n    }\r\n\r\n    function currentFundsPresent() external view returns (uint256) {\r\n        return address(this).balance;\r\n    }\r\n\r\n    function requestFunds(uint256 amount) external payable {\r\n        bool isPresent = false;\r\n        for (uint256 i = 0; i < players.length; i++) {\r\n            if (address(players[i]) == msg.sender) {\r\n                isPresent = true;\r\n                break;\r\n            }\r\n        }\r\n        require(isPresent, \"sorry you cannot ask for funds\");\r\n        require(\r\n            amount < address(this).balance,\r\n            \"Sorry there is not enough money in the contract\"\r\n        );\r\n        transferFunds(payable(msg.sender), amount);\r\n    }\r\n\r\n    function transferFunds(address payable _to, uint256 _amount)\r\n        public\r\n        payable\r\n    {\r\n        require(\r\n            address(this).balance > 1 ether,\r\n            \"Sorry The contract does not have enough money now\"\r\n        );\r\n        bool sent = _to.send(_amount * 1 ether);\r\n        require(sent, \"Failed to send the ether\");\r\n    }\r\n}\r\n\r\n",
  "sourcePath": "D:\\My projects\\DevProjs\\CRYPTO\\JigsawHacks\\wordle\\contracts\\playerFactory.sol",
  "compiler": {
    "name": "solc",
    "version": "0.8.9+commit.e5eed63a.Emscripten.clang"
  },
  "schemaVersion": "3.4.3",
  "updatedAt": "2022-02-05T19:06:29.892Z",
  "networkType": "ethereum",
  "devdoc": {
    "kind": "dev",
    "methods": {},
    "version": 1
  },
  "userdoc": {
    "kind": "user",
    "methods": {},
    "version": 1
  }
}