{
  "contractName": "Player",
  "abi": [
    {
      "inputs": [
        {
          "internalType": "address",
          "name": "newPlayer",
          "type": "address"
        },
        {
          "internalType": "uint256",
          "name": "creationTime",
          "type": "uint256"
        },
        {
          "internalType": "string",
          "name": "game",
          "type": "string"
        },
        {
          "internalType": "address",
          "name": "actualOwnerOfTheGame",
          "type": "address"
        }
      ],
      "stateMutability": "payable",
      "type": "constructor"
    },
    {
      "anonymous": false,
      "inputs": [
        {
          "indexed": false,
          "internalType": "uint256",
          "name": "amount",
          "type": "uint256"
        },
        {
          "indexed": false,
          "internalType": "address",
          "name": "playerAddress",
          "type": "address"
        },
        {
          "indexed": false,
          "internalType": "uint256",
          "name": "time",
          "type": "uint256"
        }
      ],
      "name": "DailyPayoutDone",
      "type": "event"
    },
    {
      "anonymous": false,
      "inputs": [
        {
          "indexed": false,
          "internalType": "uint256",
          "name": "amount",
          "type": "uint256"
        },
        {
          "indexed": false,
          "internalType": "address",
          "name": "playerAddress",
          "type": "address"
        },
        {
          "indexed": false,
          "internalType": "uint256",
          "name": "time",
          "type": "uint256"
        }
      ],
      "name": "PayoutDone",
      "type": "event"
    },
    {
      "stateMutability": "payable",
      "type": "fallback"
    },
    {
      "inputs": [],
      "name": "actualOwner",
      "outputs": [
        {
          "internalType": "address",
          "name": "",
          "type": "address"
        }
      ],
      "stateMutability": "view",
      "type": "function"
    },
    {
      "inputs": [],
      "name": "amountWonTillNow",
      "outputs": [
        {
          "internalType": "uint256",
          "name": "",
          "type": "uint256"
        }
      ],
      "stateMutability": "view",
      "type": "function"
    },
    {
      "inputs": [],
      "name": "currentGame",
      "outputs": [
        {
          "internalType": "string",
          "name": "",
          "type": "string"
        }
      ],
      "stateMutability": "view",
      "type": "function"
    },
    {
      "inputs": [],
      "name": "dailyRewardMultiplier",
      "outputs": [
        {
          "internalType": "uint256",
          "name": "",
          "type": "uint256"
        }
      ],
      "stateMutability": "view",
      "type": "function"
    },
    {
      "inputs": [],
      "name": "deployer",
      "outputs": [
        {
          "internalType": "contract PlayerFactory",
          "name": "",
          "type": "address"
        }
      ],
      "stateMutability": "view",
      "type": "function"
    },
    {
      "inputs": [
        {
          "internalType": "string",
          "name": "",
          "type": "string"
        }
      ],
      "name": "gameToDailyLogins",
      "outputs": [
        {
          "internalType": "uint256",
          "name": "",
          "type": "uint256"
        }
      ],
      "stateMutability": "view",
      "type": "function"
    },
    {
      "inputs": [
        {
          "internalType": "string",
          "name": "",
          "type": "string"
        }
      ],
      "name": "gameToDailyRewardAmount",
      "outputs": [
        {
          "internalType": "uint256",
          "name": "",
          "type": "uint256"
        }
      ],
      "stateMutability": "view",
      "type": "function"
    },
    {
      "inputs": [
        {
          "internalType": "string",
          "name": "",
          "type": "string"
        }
      ],
      "name": "gameToLastLogin",
      "outputs": [
        {
          "internalType": "uint256",
          "name": "",
          "type": "uint256"
        }
      ],
      "stateMutability": "view",
      "type": "function"
    },
    {
      "inputs": [
        {
          "internalType": "string",
          "name": "",
          "type": "string"
        }
      ],
      "name": "gameToPayoutAmount",
      "outputs": [
        {
          "internalType": "uint256",
          "name": "",
          "type": "uint256"
        }
      ],
      "stateMutability": "view",
      "type": "function"
    },
    {
      "inputs": [],
      "name": "gamerAddress",
      "outputs": [
        {
          "internalType": "address",
          "name": "",
          "type": "address"
        }
      ],
      "stateMutability": "view",
      "type": "function"
    },
    {
      "inputs": [
        {
          "internalType": "uint256",
          "name": "",
          "type": "uint256"
        }
      ],
      "name": "gamesPlayed",
      "outputs": [
        {
          "internalType": "string",
          "name": "",
          "type": "string"
        }
      ],
      "stateMutability": "view",
      "type": "function"
    },
    {
      "inputs": [
        {
          "internalType": "string",
          "name": "",
          "type": "string"
        }
      ],
      "name": "gamesToConsecWins",
      "outputs": [
        {
          "internalType": "uint256",
          "name": "",
          "type": "uint256"
        }
      ],
      "stateMutability": "view",
      "type": "function"
    },
    {
      "inputs": [
        {
          "internalType": "string",
          "name": "",
          "type": "string"
        }
      ],
      "name": "gamesToWins",
      "outputs": [
        {
          "internalType": "uint256",
          "name": "",
          "type": "uint256"
        }
      ],
      "stateMutability": "view",
      "type": "function"
    },
    {
      "inputs": [],
      "name": "minDailyRewardAmount",
      "outputs": [
        {
          "internalType": "uint256",
          "name": "",
          "type": "uint256"
        }
      ],
      "stateMutability": "view",
      "type": "function"
    },
    {
      "inputs": [],
      "name": "minWinAmount",
      "outputs": [
        {
          "internalType": "uint256",
          "name": "",
          "type": "uint256"
        }
      ],
      "stateMutability": "view",
      "type": "function"
    },
    {
      "inputs": [],
      "name": "timeOfCreation",
      "outputs": [
        {
          "internalType": "uint256",
          "name": "",
          "type": "uint256"
        }
      ],
      "stateMutability": "view",
      "type": "function"
    },
    {
      "inputs": [],
      "name": "totalAmountIn",
      "outputs": [
        {
          "internalType": "uint256",
          "name": "",
          "type": "uint256"
        }
      ],
      "stateMutability": "view",
      "type": "function"
    },
    {
      "inputs": [],
      "name": "winMultiplier",
      "outputs": [
        {
          "internalType": "uint256",
          "name": "",
          "type": "uint256"
        }
      ],
      "stateMutability": "view",
      "type": "function"
    },
    {
      "stateMutability": "payable",
      "type": "receive"
    },
    {
      "inputs": [
        {
          "internalType": "uint256",
          "name": "_amount",
          "type": "uint256"
        }
      ],
      "name": "changeMinWinAamount",
      "outputs": [],
      "stateMutability": "nonpayable",
      "type": "function"
    },
    {
      "inputs": [
        {
          "internalType": "uint256",
          "name": "_amount",
          "type": "uint256"
        },
        {
          "internalType": "address",
          "name": "_to",
          "type": "address"
        }
      ],
      "name": "dailyPayout",
      "outputs": [],
      "stateMutability": "payable",
      "type": "function"
    },
    {
      "inputs": [
        {
          "internalType": "string",
          "name": "game",
          "type": "string"
        }
      ],
      "name": "login",
      "outputs": [
        {
          "internalType": "string",
          "name": "",
          "type": "string"
        }
      ],
      "stateMutability": "nonpayable",
      "type": "function"
    },
    {
      "inputs": [
        {
          "internalType": "string",
          "name": "game",
          "type": "string"
        }
      ],
      "name": "win",
      "outputs": [],
      "stateMutability": "payable",
      "type": "function"
    },
    {
      "inputs": [
        {
          "internalType": "string",
          "name": "game",
          "type": "string"
        }
      ],
      "name": "loose",
      "outputs": [],
      "stateMutability": "nonpayable",
      "type": "function"
    },
    {
      "inputs": [
        {
          "internalType": "uint256",
          "name": "_amount",
          "type": "uint256"
        },
        {
          "internalType": "address",
          "name": "_to",
          "type": "address"
        }
      ],
      "name": "payout",
      "outputs": [],
      "stateMutability": "payable",
      "type": "function"
    },
    {
      "inputs": [
        {
          "internalType": "uint256",
          "name": "amount",
          "type": "uint256"
        }
      ],
      "name": "request",
      "outputs": [],
      "stateMutability": "payable",
      "type": "function"
    },
    {
      "inputs": [],
      "name": "currentBalance",
      "outputs": [
        {
          "internalType": "uint256",
          "name": "",
          "type": "uint256"
        }
      ],
      "stateMutability": "view",
      "type": "function"
    }
  ],
  "bytecode": "0x6080604052670de0b6b3a7640000600755670de0b6b3a764000060085564e8d4a51000600a5564174876e800600b55604051620019ce380380620019ce8339810160408190526200005091620002be565b60038054600160a060020a031916600160a060020a03861617905560006001556040518390600c9062000085908590620003a8565b908152602001604051809103902081905550600d82604051620000a99190620003a8565b9081526040519081900360200190208054906000620000c883620003c6565b90915550506000838155600280546001810182559152825162000113917f405787fa12a823e0f2b7631cc41b3ba8828b3321ca811111fa75cd3aa3bb5ace0190602085019062000199565b5081516200012990600490602085019062000199565b5060068054600160a060020a03191633179055670de0b6b3a76400006005556040516000906011906200015e908590620003a8565b9081526040519081900360200190205560098054600160a060020a03909216600160a060020a0319909216919091179055506200045f915050565b828054620001a79062000409565b90600052602060002090601f016020900481019282620001cb576000855562000216565b82601f10620001e657805160ff191683800117855562000216565b8280016001018555821562000216579182015b8281111562000216578251825591602001919060010190620001f9565b506200022492915062000228565b5090565b5b8082111562000224576000815560010162000229565b8051600160a060020a03811681146200025757600080fd5b919050565b7f4e487b7100000000000000000000000000000000000000000000000000000000600052604160045260246000fd5b60005b83811015620002a85781810151838201526020016200028e565b83811115620002b8576000848401525b50505050565b60008060008060808587031215620002d557600080fd5b620002e0856200023f565b935060208501519250604085015167ffffffffffffffff808211156200030557600080fd5b818701915087601f8301126200031a57600080fd5b8151818111156200032f576200032f6200025c565b604051601f8201601f19908116603f011681019083821181831017156200035a576200035a6200025c565b816040528281528a60208487010111156200037457600080fd5b620003878360208301602088016200028b565b80965050505050506200039d606086016200023f565b905092959194509250565b60008251620003bc8184602087016200028b565b9190910192915050565b600060001982141562000402577f4e487b7100000000000000000000000000000000000000000000000000000000600052601160045260246000fd5b5060010190565b6002810460018216806200041e57607f821691505b6020821081141562000459577f4e487b7100000000000000000000000000000000000000000000000000000000600052602260045260246000fd5b50919050565b61155f806200046f6000396000f3fe608060405260043610610190576000357c010000000000000000000000000000000000000000000000000000000090048063a8bdbbd9116100e5578063cf24141a116100a1578063d845a4b31161007e578063d845a4b314610477578063e59fda071461048a578063f9f0979e146104a0578063fbf8b1c7146104d857005b8063cf24141a14610409578063d1b012381461041f578063d5f394881461045757005b8063a8bdbbd91461035e578063afc2016f14610374578063b28132c714610394578063be95e01a146103aa578063bfd262a7146103bd578063ce845d1d146103f557005b80633f4bf35c1161014c578063599f2ace11610129578063599f2ace146102fd57806360b663bb1461031d57806392c0ad4c14610332578063993a36c21461034857005b80633f4bf35c14610292578063463256ee146102a557806348015c61146102dd57005b806304a5be24146101995780630b087e74146101e457806312269a6a146101f75780631dcd69ec1461022f578063382cf0a6146102455780633a7d280c1461027257005b3661019757005b005b3480156101a557600080fd5b506101d16101b43660046111ce565b8051602081830181018051600f8252928201919093012091525481565b6040519081526020015b60405180910390f35b6101976101f236600461127f565b610510565b34801561020357600080fd5b506101d16102123660046111ce565b805160208183018101805160108252928201919093012091525481565b34801561023b57600080fd5b506101d160005481565b34801561025157600080fd5b506102656102603660046112bb565b61060d565b6040516101db9190611300565b34801561027e57600080fd5b5061026561028d3660046111ce565b6106b9565b6101976102a03660046111ce565b610ace565b3480156102b157600080fd5b506003546102c590600160a060020a031681565b604051600160a060020a0390911681526020016101db565b3480156102e957600080fd5b506101976102f83660046112bb565b610d08565b34801561030957600080fd5b506009546102c590600160a060020a031681565b34801561032957600080fd5b50610265610d37565b34801561033e57600080fd5b506101d1600a5481565b34801561035457600080fd5b506101d160085481565b34801561036a57600080fd5b506101d160015481565b34801561038057600080fd5b5061019761038f3660046111ce565b610d44565b3480156103a057600080fd5b506101d160055481565b6101976103b836600461127f565b610d8e565b3480156103c957600080fd5b506101d16103d83660046111ce565b805160208183018101805160118252928201919093012091525481565b34801561040157600080fd5b5030316101d1565b34801561041557600080fd5b506101d160075481565b34801561042b57600080fd5b506101d161043a3660046111ce565b8051602081830181018051600d8252928201919093012091525481565b34801561046357600080fd5b506006546102c590600160a060020a031681565b6101976104853660046112bb565b610f1d565b34801561049657600080fd5b506101d1600b5481565b3480156104ac57600080fd5b506101d16104bb3660046111ce565b8051602081830181018051600c8252928201919093012091525481565b3480156104e457600080fd5b506101d16104f33660046111ce565b8051602081830181018051600e8252928201919093012091525481565b600a5482101561058f5760405160e560020a62461bcd028152602060048201526024808201527f536f72727920736f6d657468696e672069732077726f6e672061626f7574206560448201527f746865720000000000000000000000000000000000000000000000000000000060648201526084015b60405180910390fd5b604051600090600160a060020a0383169084156108fc0290859084818181858888f193505050509050806106085760405160e560020a62461bcd02815260206004820181905260248201527f536f72727920746865207061796f7574207761736e742070726f6365737365646044820152606401610586565b505050565b6002818154811061061d57600080fd5b90600052602060002001600091509050805461063890611333565b80601f016020809104026020016040519081016040528092919081815260200182805461066490611333565b80156106b15780601f10610686576101008083540402835291602001916106b1565b820191906000526020600020905b81548152906001019060200180831161069457829003601f168201915b505050505081565b600354606090600160a060020a031633146106d357600080fd5b62015180600c836040516106e79190611371565b9081526020016040518091039020544261070191906113a6565b106108f35761070f82610fb0565b600460405160200161072191906113bd565b60405160208183030381529060405280519060200120826040516020016107489190611300565b60405160208183030381529060405280519060200120146108b157815161077690600490602085019061111c565b506000805b600254811015610842576002818154811061079857610798611469565b906000526020600020016040516020016107b291906113bd565b60405160208183030381529060405280519060200120846040516020016107d99190611300565b6040516020818303038152906040528051906020012014156108305760019150600d846040516108099190611371565b908152604051908190036020019020805490600061082683611482565b9190505550610842565b8061083a81611482565b91505061077b565b50806108af5760028054600181018255600091909152835161088b917f405787fa12a823e0f2b7631cc41b3ba8828b3321ca811111fa75cd3aa3bb5ace0190602086019061111c565b50600060118460405161089e9190611371565b908152604051908190036020019020555b505b42600c836040516108c29190611371565b9081526020016040518091039020819055506040518060600160405280603081526020016114fa6030913992915050565b600460405160200161090591906113bd565b604051602081830303815290604052805190602001208260405160200161092c9190611300565b6040516020818303038152906040528051906020012014610a9557815161095a90600490602085019061111c565b506000805b600254811015610a26576002818154811061097c5761097c611469565b9060005260206000200160405160200161099691906113bd565b60405160208183030381529060405280519060200120846040516020016109bd9190611300565b604051602081830303815290604052805190602001201415610a145760019150600d846040516109ed9190611371565b9081526040519081900360200190208054906000610a0a83611482565b9190505550610a26565b80610a1e81611482565b91505061095f565b5080610a9357600280546001810182556000919091528351610a6f917f405787fa12a823e0f2b7631cc41b3ba8828b3321ca811111fa75cd3aa3bb5ace0190602086019061111c565b506000601184604051610a829190611371565b908152604051908190036020019020555b505b505060408051808201909152601881527f612064617920686173206e6f7420796574207061737365640000000000000000602082015290565b601181604051610ade9190611371565b9081526040519081900360200190208054906000610afb83611482565b91905055506001601082604051610b129190611371565b90815260200160405180910390205411610c1b57600854600f82604051610b399190611371565b908152602001604051809103902081905550610b7f600f82604051610b5e9190611371565b90815260405190819003602001902054600354600160a060020a0316610d8e565b601081604051610b8f9190611371565b9081526040519081900360200190208054906000610bac83611482565b91905055507fb5cac783502b8f914e5e0a27b67fd60f0aec02b3a5b2c0d930807f7a28d00b79600f82604051610be29190611371565b90815260408051918290036020908101832054600354908452600160a060020a031690830152429082015260600160405180910390a150565b601081604051610c2b9190611371565b9081526040519081900360200190208054906000610c4883611482565b9190505550601081604051610c5d9190611371565b908152602001604051809103902054600754610c79919061149d565b600f82604051610c899190611371565b908152602001604051809103902054610ca291906114bc565b600f82604051610cb29190611371565b908152602001604051809103902081905550610cd7600f82604051610b5e9190611371565b7fb5cac783502b8f914e5e0a27b67fd60f0aec02b3a5b2c0d930807f7a28d00b79600f82604051610be29190611371565b600954600160a060020a03163314610d1f57600080fd5b610d3181670de0b6b3a764000061149d565b60085550565b6004805461063890611333565b6000601082604051610d569190611371565b908152602001604051809103902081905550600854600f82604051610d7b9190611371565b9081526040519081900360200190205550565b670de0b6b3a7640000821015610e0f5760405160e560020a62461bcd02815260206004820152602f60248201527f536f7272792074686520616d6f756e742073686f756c6420626520677265617460448201527f6572207468616e203120657468657200000000000000000000000000000000006064820152608401610586565b303182811015610e9e573063d845a4b3610e31670de0b6b3a7640000866114d4565b6040518263ffffffff167c0100000000000000000000000000000000000000000000000000000000028152600401610e6b91815260200190565b600060405180830381600087803b158015610e8557600080fd5b505af1158015610e99573d6000803e3d6000fd5b505050505b604051600090600160a060020a0384169085156108fc0290869084818181858888f19350505050905080610f175760405160e560020a62461bcd02815260206004820181905260248201527f536f72727920746865207061796f7574207761736e742070726f6365737365646044820152606401610586565b50505050565b6006546040517fbf3bd25d00000000000000000000000000000000000000000000000000000000815260048101839052600160a060020a039091169063bf3bd25d90602401600060405180830381600087803b158015610f7c57600080fd5b505af1158015610f90573d6000803e3d6000fd5b50505050600554670de0b6b3a7640000610faa91906114bc565b60055550565b6001600d82604051610fc29190611371565b9081526020016040518091039020541161109257600a54600e82604051610fe99190611371565b908152602001604051809103902081905550600d8160405161100b9190611371565b908152604051908190036020019020805490600061102883611482565b9190505550611061600e826040516110409190611371565b90815260405190819003602001902054600354600160a060020a0316610510565b7fca030bcdc24c89f1878462934666de6e3b6959276d926740f5f46dfd728ad48a600e82604051610be29190611371565b600b54600d826040516110a59190611371565b9081526020016040518091039020546110be919061149d565b600e826040516110ce9190611371565b9081526020016040518091039020546110e791906114bc565b600e826040516110f79190611371565b908152602001604051809103902081905550611061600e826040516110409190611371565b82805461112890611333565b90600052602060002090601f01602090048101928261114a5760008555611190565b82601f1061116357805160ff1916838001178555611190565b82800160010185558215611190579182015b82811115611190578251825591602001919060010190611175565b5061119c9291506111a0565b5090565b5b8082111561119c57600081556001016111a1565b60e060020a634e487b7102600052604160045260246000fd5b6000602082840312156111e057600080fd5b813567ffffffffffffffff808211156111f857600080fd5b818401915084601f83011261120c57600080fd5b81358181111561121e5761121e6111b5565b604051601f8201601f19908116603f01168101908382118183101715611246576112466111b5565b8160405282815287602084870101111561125f57600080fd5b826020860160208301376000928101602001929092525095945050505050565b6000806040838503121561129257600080fd5b823591506020830135600160a060020a03811681146112b057600080fd5b809150509250929050565b6000602082840312156112cd57600080fd5b5035919050565b60005b838110156112ef5781810151838201526020016112d7565b83811115610f175750506000910152565b602081526000825180602084015261131f8160408501602087016112d4565b601f01601f19169190910160400192915050565b60028104600182168061134757607f821691505b6020821081141561136b5760e060020a634e487b7102600052602260045260246000fd5b50919050565b600082516113838184602087016112d4565b9190910192915050565b60e060020a634e487b7102600052601160045260246000fd5b6000828210156113b8576113b861138d565b500390565b6000602080835260008454816002820490506001808316806113e057607f831692505b8583108114156114015760e060020a634e487b710285526022600452602485fd5b87860183815260200181801561141e576001811461142f5761145a565b60ff1986168252878201965061145a565b60008b81526020902060005b868110156114545781548482015290850190890161143b565b83019750505b50949998505050505050505050565b60e060020a634e487b7102600052603260045260246000fd5b60006000198214156114965761149661138d565b5060010190565b60008160001904831182151516156114b7576114b761138d565b500290565b600082198211156114cf576114cf61138d565b500190565b6000826114f45760e060020a634e487b7102600052601260045260246000fd5b50049056fe436f6e67726174732c20796f7520676f7420796f7572206461696c79207265776172642077656c636f6d65206261636ba26469706673582212202e4d9cb08cbc7748c7ff97327783b0f78fdf5e9948c6479407137936725b670e64736f6c63430008090033",
  "immutableReferences": {},
  "source": "// SPDX-License-Identifier: GPL-3.0\r\n\r\npragma solidity >=0.7.0 <0.9.0;\r\n\r\nimport './playerFactory.sol';\r\n\r\ncontract Player {\r\n    // uint public lastLoginTime;\r\n    uint256 public timeOfCreation;\r\n    uint256 public amountWonTillNow;\r\n    string[] public gamesPlayed;\r\n    address public gamerAddress;\r\n    string public currentGame;\r\n    uint256 public totalAmountIn;\r\n    PlayerFactory public deployer;\r\n    uint256 public winMultiplier = 1 ether;\r\n    uint256 public minWinAmount = 1 ether;\r\n    address public actualOwner;\r\n    uint256 public minDailyRewardAmount = 1000 gwei;\r\n    uint256 public dailyRewardMultiplier = 100 gwei;\r\n\r\n    mapping(string => uint256) public gameToLastLogin;\r\n    mapping(string => uint256) public gameToDailyLogins;\r\n    mapping(string => uint256) public gameToDailyRewardAmount;\r\n    mapping(string => uint256) public gameToPayoutAmount;\r\n    mapping(string => uint256) public gamesToConsecWins;\r\n    mapping(string => uint256) public gamesToWins;\r\n\r\n    event PayoutDone(uint256 amount, address playerAddress, uint256 time);\r\n    event DailyPayoutDone(uint256 amount, address playerAddress, uint256 time);\r\n\r\n    constructor(\r\n        address newPlayer,\r\n        uint256 creationTime,\r\n        string memory game,\r\n        address actualOwnerOfTheGame\r\n    ) payable {\r\n        gamerAddress = newPlayer;\r\n        amountWonTillNow = 0;\r\n        gameToLastLogin[game] = creationTime;\r\n        gameToDailyLogins[game]++;\r\n        timeOfCreation = creationTime;\r\n        gamesPlayed.push(game);\r\n        currentGame = game;\r\n        deployer = PlayerFactory(address(msg.sender));\r\n        totalAmountIn = 1 ether;\r\n        gamesToWins[game] = 0;\r\n        actualOwner = actualOwnerOfTheGame;\r\n    }\r\n\r\n    modifier onlyOwner() {\r\n        require(msg.sender == gamerAddress);\r\n        _;\r\n    }\r\n\r\n    modifier onlyActualOwner() {\r\n        require(msg.sender == actualOwner);\r\n        _;\r\n    }\r\n\r\n    modifier onlyThisContract() {\r\n        require(msg.sender == address(this));\r\n        _;\r\n    }\r\n\r\n    function changeMinWinAamount(uint256 _amount) external onlyActualOwner {\r\n        minWinAmount = _amount * 1 ether;\r\n    }\r\n\r\n    function dailyReward(string memory game) internal {\r\n        if (gameToDailyLogins[game] <= 1) {\r\n            gameToDailyRewardAmount[game] = minDailyRewardAmount;\r\n            gameToDailyLogins[game]++;\r\n            dailyPayout(gameToDailyRewardAmount[game], gamerAddress);\r\n            emit DailyPayoutDone(\r\n                gameToDailyRewardAmount[game],\r\n                gamerAddress,\r\n                block.timestamp\r\n            );\r\n            return;\r\n        }\r\n\r\n        gameToDailyRewardAmount[game] =\r\n            gameToDailyRewardAmount[game] +\r\n            gameToDailyLogins[game] *\r\n            dailyRewardMultiplier;\r\n        dailyPayout(gameToDailyRewardAmount[game], gamerAddress);\r\n        // gameToDailyRewardAmount[ga]\r\n        emit DailyPayoutDone(\r\n            gameToDailyRewardAmount[game],\r\n            gamerAddress,\r\n            block.timestamp\r\n        );\r\n        return;\r\n\r\n        // @TODO implement a function which should depending upon the number of daily log ins increase the amount of payout\r\n    }\r\n\r\n    function dailyPayout(uint256 _amount, address _to) public payable {\r\n        require(\r\n            _amount >= minDailyRewardAmount,\r\n            \"Sorry something is wrong about ether\"\r\n        );\r\n        bool sent = payable(_to).send(_amount);\r\n        require(sent, \"Sorry the payout wasnt processed\");\r\n    }\r\n\r\n    function login(string memory game)\r\n        external\r\n        onlyOwner\r\n        returns (string memory)\r\n    {\r\n        if ((block.timestamp - gameToLastLogin[game]) >= 1 days) {\r\n            dailyReward(game);\r\n            if (\r\n                keccak256(abi.encode(game)) !=\r\n                keccak256(abi.encode(currentGame))\r\n            ) {\r\n                currentGame = game;\r\n\r\n                bool isPresent = false;\r\n                for (uint256 i = 0; i < gamesPlayed.length; i++) {\r\n                    if (\r\n                        keccak256(abi.encode(game)) ==\r\n                        keccak256(abi.encode(gamesPlayed[i]))\r\n                    ) {\r\n                        isPresent = true;\r\n                        gameToDailyLogins[game]++;\r\n                        break;\r\n                    }\r\n                }\r\n                if (!isPresent) {\r\n                    gamesPlayed.push(game);\r\n                    gamesToWins[game] = 0;\r\n                }\r\n            }\r\n\r\n            gameToLastLogin[game] = block.timestamp;\r\n            return \"Congrats, you got your daily reward welcome back\";\r\n        } else {\r\n            if (\r\n                keccak256(abi.encode(game)) !=\r\n                keccak256(abi.encode(currentGame))\r\n            ) {\r\n                currentGame = game;\r\n\r\n                bool isPresent = false;\r\n\r\n                for (uint256 i = 0; i < gamesPlayed.length; i++) {\r\n                    if (\r\n                        keccak256(abi.encode(game)) ==\r\n                        keccak256(abi.encode(gamesPlayed[i]))\r\n                    ) {\r\n                        isPresent = true;\r\n                        gameToDailyLogins[game]++;\r\n                        break;\r\n                    }\r\n                }\r\n                if (!isPresent) {\r\n                    gamesPlayed.push(game);\r\n                    gamesToWins[game] = 0;\r\n                }\r\n            }\r\n\r\n            return \"a day has not yet passed\";\r\n        }\r\n    }\r\n\r\n    function win(string memory game) external payable {\r\n        gamesToWins[game]++;\r\n        if (gamesToConsecWins[game] <= 1) {\r\n            gameToPayoutAmount[game] = minWinAmount;\r\n            payout(gameToPayoutAmount[game], gamerAddress);\r\n            gamesToConsecWins[game]++;\r\n            emit PayoutDone(\r\n                gameToPayoutAmount[game],\r\n                gamerAddress,\r\n                block.timestamp\r\n            );\r\n            return;\r\n        }\r\n        gamesToConsecWins[game]++;\r\n        gameToPayoutAmount[game] =\r\n            gameToPayoutAmount[game] +\r\n            winMultiplier *\r\n            gamesToConsecWins[game];\r\n        payout(gameToPayoutAmount[game], gamerAddress);\r\n        emit PayoutDone(\r\n            gameToPayoutAmount[game],\r\n            gamerAddress,\r\n            block.timestamp\r\n        );\r\n        return;\r\n        // @TODO GET THE MATH WORKING -> Figure out a right multiplier which will reduce the total money and get finish the thingy about consecutive wins.\r\n        // @TODO add the payout function which will pay the guy of this contract out\r\n        // @TODO Ensure that wins from every other game is counted and treated separately\r\n    }\r\n\r\n    function loose(string memory game) external {\r\n        gamesToConsecWins[game] = 0;\r\n        gameToPayoutAmount[game] = minWinAmount;\r\n    }\r\n\r\n    function payout(uint256 _amount, address _to) public payable {\r\n        require(\r\n            _amount >= 1 ether,\r\n            \"Sorry the amount should be greater than 1 ether\"\r\n        );\r\n        uint256 currentAmount = address(this).balance;\r\n        if (currentAmount < _amount) {\r\n            (this).request(_amount / (10**18));\r\n        }\r\n\r\n        bool sent = payable(_to).send(_amount);\r\n        require(sent, \"Sorry the payout wasnt processed\");\r\n    }\r\n\r\n    function request(uint256 amount) public payable {\r\n        deployer.requestFunds(amount);\r\n        totalAmountIn = totalAmountIn + 1 ether;\r\n    }\r\n\r\n    function currentBalance() external view returns (uint256) {\r\n        return address(this).balance;\r\n    }\r\n\r\n    receive() external payable {}\r\n\r\n    fallback() external payable {}\r\n}",
  "sourcePath": "D:\\My projects\\DevProjs\\CRYPTO\\JigsawHacks\\wordle\\contracts\\player.sol",
  "compiler": {
    "name": "solc",
    "version": "0.8.9+commit.e5eed63a.Emscripten.clang"
  },
  "schemaVersion": "3.4.3",
  "updatedAt": "2022-02-05T19:06:27.511Z",
  "devdoc": {
    "kind": "dev",
    "methods": {},
    "version": 1
  },
  "userdoc": {
    "kind": "user",
    "methods": {},
    "version": 1
  }
}